:020000040800F2
:10000000E0060020CD01000879050008170500086A
:100010007505000887020008A10B00080000000019
:100020000000000000000000000000006907000858
:100030008B02000800000000710600085508000847
:10004000E7010008E7010008E7010008E7010008F0
:10005000E7010008E7010008E7010008E7010008E0
:10006000E7010008E70100088D020008E701000829
:10007000E7010008E7010008E7010008E7010008C0
:10008000E7010008E7010008E7010008E7010008B0
:10009000E7010008E7010008E7010008E7010008A0
:1000A000E7010008E7010008E7010008E701000890
:1000B000E7010008E7010008E7010008E701000880
:1000C000E7010008E7010008E7010008E701000870
:1000D000E7010008B9080008E7010008E701000887
:1000E000E7010008E7010008E7010008E701000850
:1000F000E7010008E7010008E7010008E701000840
:10010000E7010008E7010008E7010008E70100082F
:10011000E7010008E7010008E7010008E70100081F
:10012000E7010008E7010008E7010008E70100080F
:1001300000F002F800F03AF80AA090E8000C8244BF
:100140008344AAF10107DA4501D100F02FF8AFF29C
:10015000090EBAE80F0013F0010F18BFFB1A43F0A5
:1001600001031847740A0000940A0000103A24BFE3
:1001700078C878C1FAD8520724BF30C830C144BF0C
:1001800004680C607047000000230024002500264E
:10019000103A28BF78C1FBD8520728BF30C148BFEA
:1001A0000B6070471FB51FBD10B510BD00F031F8D2
:1001B0001146FFF7F7FF00F0F5FC00F04FF803B42D
:1001C000FFF7F2FF03BC00F057F800000948804732
:1001D00009480047FEE7FEE7FEE7FEE7FEE7FEE729
:1001E000FEE7FEE7FEE7FEE704480549054A064B41
:1001F000704700005908000831010008E0000020A5
:10020000E0060020E0020020E00200207047704776
:100210007047754600F02CF8AE4605006946534617
:1002200020F00700854618B020B5FFF7DDFFBDE8D8
:1002300020404FF000064FF000074FF000084FF04D
:10024000000B21F00701AC46ACE8C009ACE8C009DE
:10025000ACE8C009ACE8C0098D46704710B504464B
:10026000AFF300802046BDE81040FFF7A8BF0000B4
:10027000004870477C00002001491820ABBEFEE713
:1002800026000200704700BFFEE7704710B502A0CD
:1002900000F070FC10BD0000547269676765722041
:1002A0004750494F43342065787465726E616C2005
:1002B000696E7465727275707421000000212349A3
:1002C0008279002A3AD00A46126803689A430B469C
:1002D0001A600A1D126803689A430B1D1A6002799E
:1002E00011440A6803681A430A60184A08321268FF
:1002F00003689A43154B08331A601A1D1268036885
:100300009A43124B0C331A604279102A0ED11A1FED
:10031000126803681A430D4B08331A601A1D1268DD
:1003200003681A43094B0C331A600DE00749427900
:1003300011440A6803681A430A6005E0027911440F
:100340000A6803689A430A6070470000000401408D
:100350001CB50420032101230022CDE900100C214B
:10036000102000F0B6F801231A4619460A2000F0C2
:1003700047F91CBD30B500228B071C0F0F2303FA71
:1003800004F20B4B8C1053F824309343084C8D101F
:1003900044F8253023468C1053F824308C07240F62
:1003A00000FA04F42343024C8D1044F8253030BD8C
:1003B000080001402DE9F0410246002500260020FA
:1003C00000230024002791F803C00CF00F0591F8DA
:1003D00003C00CF0100CBCF1000F03D091F802C068
:1003E0004CEA050591F800C0BCF1000F31D014684B
:1003F00000202BE04FF0010C0CFA00F3B1F800C024
:100400000CEA03069E4220D183004FF00F0C0CFA39
:1004100003F7BC4305FA03FC4CEA040491F803C05B
:10042000BCF1280F06D14FF0010C0CFA00FCC2F809
:1004300014C00AE091F803C0BCF1480F05D14FF099
:10044000010C0CFA00FCC2F810C0401C0828D1D3E3
:100450001460B1F800C0BCF1FF0F34DD5468002017
:100460002EE000F1080C4FF0010808FA0CF3B1F887
:1004700000C00CEA03069E4221D183004FF00F0C0E
:100480000CFA03F7BC4305FA03FC4CEA040491F8A8
:1004900003C0BCF1280F05D100F1080C08FA0CF8D4
:1004A000C2F8148091F803C0BCF1480F07D100F1E5
:1004B000080C4FF0010808FA0CF8C2F81080401C34
:1004C0000828CED35460BDE8F081416170470161D6
:1004D00070472DE9FC4704460D4616461F46DDE9E8
:1004E0000A8900948DF805500EB1042000E0002028
:1004F0008DF804000FB1012000E000208DF8060007
:10050000A8F10101C8B24946FFF734FF6846FFF77A
:10051000D5FEBDE8FC8700BFFEE7000008B501215D
:10052000102000F0A7F88020ADF8000010208DF812
:10053000030003208DF8020069460448FFF73AFFE4
:1005400080210248FFF7C1FF08BD000000100140F4
:1005500010B5044604F0010020B180210448FFF7E3
:10056000B6FF03E080210248FFF7AFFF10BD000097
:100570000010014000BFFEE77047000070B5002189
:1005800000230F22C47804B3154C246804F4E064FB
:10059000C4F5E064210AC1F10403CA40447804FAB6
:1005A00003F184781440214309010E4C0678A155CB
:1005B000047804F01F050124AC4005786D11AD00EE
:1005C00005F1E025C5F8004109E0047804F01F05B5
:1005D0000124AC40044D0678761145F8264070BDE4
:1005E0000CED00E000E400E080E100E0024901439E
:1005F000024A1160704700000000FA050CED00E0AF
:10060000F8B507460C4615461E46F8B28DF80000B0
:10061000E0B28DF80100E8B28DF802000EB10120C1
:1006200000E000208DF803006846FFF7A7FFF8BD43
:1006300070B50546052D13D2DFE805F00306090C59
:100640000F004FF4E0640EE04FF4C0640BE04FF491
:10065000A06408E04FF4806405E04FF4407402E0C9
:100660004FF4E06400BF00BF2046FFF7BFFF70BD3E
:100670007047000029B1064A92690243044B9A610F
:1006800004E0034A92698243014B9A61704700007B
:100690000010024030B500210022002400232D4D1F
:1006A0006D6805F00C0121B1042905D0082923D17A
:1006B00005E0294D056022E0274D05601FE0254D2E
:1006C0006D6805F47012234D6D6805F480340225C1
:1006D00005EB92421CB9214D554305600BE01D4DC1
:1006E0006D6805F400351DB11C4D5543056002E0F1
:1006F000194D5543056002E0174D056000BF00BF6E
:10070000144D6D6805F0F0010909154D6B5C056825
:10071000DD4045600F4D6D6805F4E061090A104D3C
:100720006B5C4568DD4085600A4D6D6805F460517D
:10073000C90A0B4D6B5C4568DD40C560054D6D68B1
:1007400005F44041890B074D6B5CC568B5FBF3F5BB
:10075000056130BD0010024000127A0000093D0022
:100760000000002010000020704710B500F002F8D3
:1007700010BD00000CB500200190009033480068C7
:1007800040F480303149086000BF3048006800F410
:10079000003000900198401C0190009818B9019811
:1007A000B0F5A06FF1D12948006800F4003010B115
:1007B0000120009001E0002000900098012843D122
:1007C0002348006840F0100021490860084600688E
:1007D00020F0030008600846006840F0020008604E
:1007E0001A48406819494860084640684860084609
:1007F000406840F4806048600846406820F47C10FF
:1008000048600846406840F4E810486008460068C0
:1008100040F08070086000BF0C48006800F0007075
:100820000028F9D00948406820F0030007494860D3
:100830000846406840F00200486000BF0348406836
:1008400000F00C000828F9D10CBD00000010024097
:10085000002002407047000010B51348006840F0C7
:1008600001001149086008464068104908400E49D7
:100870004860084600680E4908400B490860084671
:10088000006820F4802008600846406820F4FE00DC
:1008900048604FF41F008860FFF767FF4FF000606B
:1008A0000449086010BD0000001002400000FFF87D
:1008B000FFFFF6FE08ED00E070B540F2255110484C
:1008C00000F03DF80546C5B10D4800F0F3F8C4B29C
:1008D00021460B4800F0F3F80A4801680068401C04
:1008E000084A1060084844540A2C06D100211268B6
:1008F000815400200349086070BD00BFFCE7000080
:1009000000380140140000201800002021B1828925
:1009100042F40052828104E082894DF6FF731A404E
:100920008281704702460020B1F5007F00D100BFF0
:1009300013880B400BB1012000E00020704770B518
:100940000246002400230025002040F66A16B1422A
:1009500000D100BFC1F3421501F01F03012606FAC2
:1009600003F3012D02D19689334006E0022D02D116
:10097000168A334001E0968A33400C12012606FAAB
:1009800004F41688344013B10CB1012000E00020BB
:1009900070BDF0B50346002400260025002040F677
:1009A0006A17B94200D100BF1846C1F3421401F0E2
:1009B0001F06012707FA06F5012C01D10C3004E0CF
:1009C000022C01D1103000E014301AB107682F4317
:1009D000076002E00768AF430760F0BD2DE9F0470C
:1009E00086B005460E460024A24600BFA146002759
:1009F000B08900B100BF2F462C8A4CF6FF7004402E
:100A0000F08804432C82AC894EF6F3100440B08881
:100A100031890843718908430443AC81AC8A4FF69D
:100A2000FF400440B0890443AC8201A8FFF732FEC6
:100A30001F48874202D1DDF810A001E0DDF80CA0CC
:100A4000A88900F4004040B10AEBCA0000EB0A108C
:100A500031684900B0FBF1F807E00AEBCA0000EB8F
:100A60000A1031688900B0FBF1F86420B8FBF0F09F
:100A700004012009642101FB1089A88900F40040C9
:100A800040B1322000EBC900B0FBF1F000F00700EC
:100A9000044308E0322000EB09106421B0FBF1F0C0
:100AA00000F00F0004432C8106B0BDE8F087000081
:100AB0000038014001468888C0F308007047C1F340
:100AC0000802828070474FF4165101600021818036
:100AD000C18001810C21418100218181704700008A
:100AE00010B586B00446012144F20400FFF7C2FDB0
:100AF0004FF40070ADF8040018208DF807000320B3
:100B00008DF8060001A91948FFF754FC4FF48060E6
:100B1000ADF8040004208DF8070001A91348FFF781
:100B200049FC02940020ADF80C000C20ADF8120036
:100B30000020ADF80E00ADF8100002A8FFF7C3FFCB
:100B400002A90B48FFF74AFF012240F2255108484D
:100B5000FFF71FFF01210648FFF7D8FE01230022FF
:100B600011462520FFF74CFD06B010BD00080140DE
:100B70000038014010B504460BE000BF8021074853
:100B8000FFF7D0FE0028F9D014F8011B0348FFF747
:100B900096FF20780028F0D110BD000000380140F9
:100BA00000BFFEE70220FFF743FD4FF4E130FFF7FF
:100BB00097FFFFF7B3FCFFF7CBFB0124002508E00C
:100BC0006D1C0448854204DD0025E4432046FFF700
:100BD000BFFCF5E7404B4C00F80B0008000000207C
:100BE000180000006C010008100C0008180000201C
:100BF000C80600008801000800000000010203048C
:100C000001020304060708090204060800000000A8
:04000005080001CD21
:00000001FF
